:020000040800F2
:10000000B00B00106583000801830008038300081B
:10001000058300080783000809830008000000002A
:100020000000000000000000000000000B8300083A
:100030000D830008000000000F83000811830008F2
:10004000878300088B8300088F8300089383000850
:10005000978300089B8300089F830008A383000800
:10006000A7830008AB830008AF830008B3830008B0
:10007000B7830008BB830008BF830008C383000860
:10008000C7830008CB830008CF830008D383000810
:10009000D7830008DB830008DF830008E3830008C0
:1000A000E7830008EB830008EF830008F383000870
:1000B000F7830008FB830008FF830008038400081F
:1000C000078400080B8400080F84000813840008CC
:1000D000178400081B8400081F840008238400087C
:1000E000278400082B8400082F840008338400082C
:1000F000378400083B8400083F84000843840008DC
:10010000478400084B8400084F840008538400088B
:10011000578400085B8400085F840008638400083B
:10012000678400086B8400086F84000873840008EB
:10013000778400087B8400087F840008838400089B
:10014000878400088B8400088F840008938400084B
:1001500015830008978400089B8400089F8400088A
:10016000A3840008A7840008AB840008AF840008BB
:10017000B3840008B7840008BB84000800000000B6
:10018000BF840008C38400080000000000000000D5
:10019000000000000000000000000000000000005F
:1001A000000000000000000000000000000000004F
:1001B000000000000000000000000000000000003F
:1001C000000000000000000000000000000000002F
:1001D0000000000000000380000380000380000393
:1001E0008000038000038000038000038000038000
:1001F000000100000100000000000000000380007A
:10020000038000000000000000000000000000006B
:1002100000000000000000000000000000000000DE
:10022000000E70000E70000E70000420000420000C
:100230000420000420000000000000000000000076
:1002400000000000000000000000000000000000AE
:10025000000000000000000000000000000000009E
:100260000000000000000660000660000660000656
:1002700060000660003FF8003FF8000660000CC018
:10028000003FF8003FF8000CC0000CC0000CC0009C
:100290000CC0000CC00000000000000000000000C6
:1002A000000000000000000000000001800001804C
:1002B0000007B0000FF0001870001870001C00005C
:1002C0000F800007E00000F0001830001C30001C18
:1002D00070001FE0001BC000018000018000018051
:1002E000000180000000000000000000000000008D
:1002F0000000000000000780000FC0001CE0001894
:1003000060001860001CE0000FF80007E0001FF01C
:100310000007380006180006180007380003F00030
:1003200001E00000000000000000000000000000EC
:1003300000000000000000000000000000000000BD
:100340000000000003F00007F0000C60000C00004B
:100350000C00000600000700000F9C001DFC0018A8
:10036000F0001870000FFC0007DC00000000000027
:10037000000000000000000000000000000000007D
:100380000000000000000000000380000380000364
:1003900080000100000100000100000100000000D9
:1003A000000000000000000000000000000000004D
:1003B000000000000000000000000000000000003D
:1003C0000000000000000000000000000000001815
:1003D0000000380000700000F00000E00000E000C5
:1003E00001C00001C00001C00001C00001C0000147
:1003F000C00000E00000E000007000007000003865
:1004000000001800000000000000000000000000D4
:100410000000000000001800001C00000E00000E8C
:100420000000070000070000038000038000038035
:100430000003800003800003800007000007000025
:100440000F00000E00001C0000180000000000005B
:10045000000000000000000000000000000001801B
:10046000000180000180001DB8001FF80007E000B7
:1004700003C00003C000066000066000000000002A
:10048000000000000000000000000000000000006C
:10049000000000000000000000000000000000005C
:1004A00000000000000000000000000001800001CA
:1004B00080000180000180000180003FFC003FFCC3
:1004C00000018000018000018000018000018000A7
:1004D000000000000000000000000000000000001C
:1004E000000000000000000000000000000000000C
:1004F00000000000000000000000000000000000FC
:1005000000000000000000000000000000000000EB
:10051000000000E00000C00001C000018000018078
:1005200000030000030000000000000000000000C5
:1005300000000000000000000000000000000000BB
:1005400000000000000000000000001FF8001FF87D
:10055000000000000000000000000000000000009B
:10056000000000000000000000000000000000008B
:10057000000000000000000000000000000000007B
:10058000000000000000000000000000000000006B
:10059000000000000000000000000000000000005B
:1005A000000003C00003C00003C000000000000002
:1005B000000000000000000000000000000000003B
:1005C0000018000018000038000030000070000023
:1005D000600000600000C00000C0000180000180D9
:1005E000000300000300000600000600000E0000EB
:1005F0000C00001C000018000018000000000000A3
:10060000000000000000000000000000000003C027
:100610000007E0000C30000C30001818001818001B
:100620001818001818001818001818001818000CCE
:1006300030000C300007E00003C0000000000000A4
:1006400000000000000000000000000000000000AA
:100650000000000000000080000780001F80001DD7
:100660008000018000018000018000018000018085
:10067000000180000180000180000180001FF8005F
:100680001FF8000000000000000000000000000053
:10069000000000000000000000000000000007C093
:1006A000001FF0003830003018003018000018002B
:1006B00000300000600001C0000380000600000C54
:1006C00000001800003FF8003FF8000000000000A4
:1006D000000000000000000000000000000000001A
:1006E00000000000000003C0000FE0000C700000DC
:1006F000300000300000600003C00003E000007024
:10070000000018000018000018001838001FF00042
:100710000FC000000000000000000000000000000A
:10072000000000000000000000000000000000E0E9
:100730000001E00001E000036000066000066000C8
:100740000C60000C60001860003060003FF8003F53
:10075000F80000600003F80003F80000000000004B
:100760000000000000000000000000000000000089
:100770000000000000001FF0001FF000180000182B
:1007800000001800001BC0001FF0001C3000001803
:10079000000018000018000018003030003FF00082
:1007A0000FC000000000000000000000000000007A
:1007B000000000000000000000000000000000F841
:1007C0000003F8000700000E00000C0000180000F5
:1007D0001BC0001FF0001C3000181800181800186B
:1007E00018000C38000FF00003E0000000000000CB
:1007F00000000000000000000000000000000000F9
:100800000000000000001FF8001FF8001818001872
:100810003800003000003000007000006000006010
:100820000000E00000C00000C00001C00001800026
:100830000180000000000000000000000000000037
:10084000000000000000000000000000000007E0C1
:10085000000FF0001C38001818001818000C3000A9
:1008600007E00007E0000C30001818001818001806
:1008700018001C38000FF00007E000000000000026
:100880000000000000000000000000000000000068
:1008900000000000000007C0000FF0001C3000182E
:1008A00018001818001818000C38000FF80003D8AA
:1008B0000000180000300000700000E0001FC000C1
:1008C0001F00000000000000000000000000000009
:1008D0000000000000000000000000000000000018
:1008E0000000000000000000000003C00003C00082
:1008F00003C0000000000000000000000000000035
:10090000000003C00003C00003C00000000000009E
:1009100000000000000000000000000000000000D7
:1009200000000000000000000000000000000000C7
:10093000000000F00000F00000F0000000000000E7
:100940000000000000000000E00001C00001800085
:100950000180000300000200000000000000000011
:100960000000000000000000000000000000000087
:1009700000000000001C00003C0000F00003C0006C
:100980000F00003C0000F000003C00000F000003DE
:10099000C00000F000003C00001C0000000000004F
:1009A0000000000000000000000000000000000047
:1009B0000000000000000000000000000000000037
:1009C00000000000007FFC007FFC00000000000031
:1009D000007FFC007FFC0000000000000000000021
:1009E0000000000000000000000000000000000007
:1009F00000000000000000000000000000000000F7
:100A0000000000007000007800001E000007800059
:100A100001E000007800001E0000780001E00007FF
:100A200080001E0000780000700000000000000040
:100A300000000000000000000000000000000000B6
:100A400000000000000000000007C0000FE00018D8
:100A5000700018300018300000700000E00003C083
:100A600000038000030000000000000000070000F9
:100A7000070000000000000000000000000000006F
:100A8000000000000000000000000000000003E083
:100A90000007F0000E38000C180018780018F80055
:100AA00019D80019980019980019980018F800181A
:100AB00078001800000C00000E180007F80003E092
:100AC0000000000000000000000000000000000026
:100AD0000000000000000000001F80001FC0000197
:100AE000C0000360000360000630000630000C30D8
:100AF000000FF8001FF800180C00300C00FC7F00FD
:100B0000FC7F00000000000000000000000000006A
:100B100000000000000000000000000000000000D5
:100B2000007FE0007FF00018380018180018180047
:100B30001838001FF0001FF800181C00180C0018CF
:100B40000C00180C007FF8007FF00000000000008F
:100B50000000000000000000000000000000000095
:100B600000000000000000000003EC000FFC001C6F
:100B70001C00180C00300C00300000300000300069
:100B800000300000300000180C001C1C000FF800A2
:100B900003F0000000000000000000000000000062
:100BA0000000000000000000000000000000000045
:100BB000007FC0007FF000183800181800180C00E3
:100BC000180C00180C00180C00180C00180C001859
:100BD00018001838007FF0007FE0000000000000DF
:100BE0000000000000000000000000000000000005
:100BF0000000000000000000007FF8007FF80018EF
:100C000018001818001998001980001F80001F8014
:100C1000001980001998001818001818007FF800B3
:100C20007FF800000000000000000000000000004D
:100C300000000000000000000000000000000000B4
:100C4000003FFC003FFC000C0C000C0C000CCC0026
:100C50000CC0000FC0000FC0000CC0000CC0000C86
:100C600000000C00003FC0003FC00000000000007A
:100C70000000000000000000000000000000000074
:100C800000000000000000000003EC000FFC001C4E
:100C90001C00180C00300C0030000030000030FE4A
:100CA0000030FE00300C00380C001C1C000FFC0053
:100CB00003F0000000000000000000000000000041
:100CC0000000000000000000000000000000000024
:100CD000007E7E007E7E001818001818001818008C
:100CE0001818001FF8001FF800181800181800182E
:100CF00018001818007E7E007E7E000000000000B4
:100D000000000000000000000000000000000000E3
:100D10000000000000000000001FF8001FF80001A4
:100D200080000180000180000180000180000180BE
:100D3000000180000180000180000180001FF80098
:100D40001FF800000000000000000000000000008C
:100D50000000000000000000000000000000000093
:100D60000007FE0007FE00003000003000003000E9
:100D700000300000300030300030300030300030C3
:100D800030003060003FE0000F80000000000000F5
:100D90000000000000000000000000000000000053
:100DA0000000000000000000007F3E007F3E0018B1
:100DB000300018600018C0001980001B80001FC0A0
:100DC000001CE0001870001830001838007F1F0069
:100DD0007F1F000000000000000000000000000075
:100DE0000000000000000000000000000000000003
:100DF000007F80007F80000C00000C00000C0000D1
:100E00000C00000C00000C00000C0C000C0C000C82
:100E10000C000C0C007FFC007FFC000000000000B8
:100E200000000000000000000000000000000000C2
:100E3000000000000000000000F00F00F81F003864
:100E40001C003C3C003C3C00366C00366C0033CC53
:100E50000033CC00318C00300C00300C00FE7F00E1
:100E6000FE7F000000000000000000000000000005
:100E70000000000000000000000000000000000072
:100E80000078FE0078FE001C18001E18001F1800D5
:100E90001B18001B980019D80018D80018F8001863
:100EA00078001838007F18007F180000000000004C
:100EB0000000000000000000000000000000000032
:100EC00000000000000000000003C0000FF0001C44
:100ED0003800181800381C00300C00300C00300CA2
:100EE00000300C00381C001818001C38000FF000EF
:100EF00003C000000000000000000000000000002F
:100F000000000000000000000000000000000000E1
:100F1000003FF0003FF8000C1C000C0C000C0C0013
:100F20000C0C000C18000FF8000FE0000C00000C77
:100F300000000C00003FC0003FC0000000000000A7
:100F400000000000000000000000000000000000A1
:100F500000000000000000000003C0000FF0001CB3
:100F60003800181800381C00300C00300C00300C11
:100F700000300C00381C001818001C38000FF0005E
:100F800007C00007CC000FFC000C38000000000078
:100F90000000000000000000000000000000000051
:100FA000007FE0007FF000183800181800181800C3
:100FB0001838001FF0001FC00018E000187000185B
:100FC00030001838007F1E007F0E00000000000077
:100FD0000000000000000000000000000000000011
:100FE00000000000000000000007D8000FF8001CFF
:100FF00038001818001818001E00000FC00003F079
:10100000000078001818001818001C38001FF000A5
:101010001BE00000000000000000000000000000D5
:1010200000000000000000000000000000000000C0
:10103000003FFC003FFC00318C00318C00318C0003
:10104000318C0001800001800001800001800001DE
:1010500080000180000FF0000FF000000000000091
:101060000000000000000000000000000000000080
:101070000000000000000000007E7E007E7E001860
:101080001800181800181800181800181800181858
:10109000001818001818001818000C30000FF00085
:1010A00003C000000000000000000000000000007D
:1010B0000000000000000000000000000000000030
:1010C000007F7F007F7F00180C000C18000C1800B8
:1010D0000C180006300006300003600003600003B7
:1010E000600001C00001C00000800000000000009E
:1010F00000000000000000000000000000000000F0
:10110000000000000000000000FE3F80FE3F803035
:10111000060030060030860019CC0019CC001B6C8C
:10112000001B6C001E7C000E38000E38000C1800EE
:101130000C1800000000000000000000000000008B
:10114000000000000000000000000000000000009F
:10115000007E7E007E7E001818000C3000066000C5
:1011600003C00001800001800003C0000660000C85
:1011700030001818007E7E007E7E00000000000017
:10118000000000000000000000000000000000005F
:101190000000000000000000007C7E007C7E001843
:1011A00018000C300006600006600003C0000180DB
:1011B000000180000180000180000180000FF0002C
:1011C0000FF0000000000000000000000000000020
:1011D000000000000000000000000000000000000F
:1011E000001FF8001FF800181800183000186000E1
:1011F00018C0000180000300000618000C18001839
:1012000018003018003FF8003FF800000000000010
:1012100000000000000000000000000000000000CE
:1012200000000000000001F00001F000018000015A
:1012300080000180000180000180000180000180A9
:101240000001800001800001800001800001800019
:1012500001800001800001F00001F00000000000AA
:1012600000000000000000001800001800001C0032
:10127000000C00000E000006000006000003000045
:1012800003000001800001800000C00000C00000D9
:10129000600000600000700000300000380000189E
:1012A0000000180000000000000000000000000026
:1012B0000000000000000F80000F8000018000018E
:1012C0008000018000018000018000018000018019
:1012D0000001800001800001800001800001800089
:1012E0000180000180000F80000F800000000000DE
:1012F000000000000000000000000000800001C0AD
:101300000003E0000770000630000C1800180C0005
:1013100010040000000000000000000000000000B9
:1013200000000000000000000000000000000000BD
:1013300000000000000000000000000000000000AD
:10134000000000000000000000000000000000009D
:10135000000000000000000000000000000000008D
:10136000000000000000000000000000000000007D
:10137000000000000000000000000000000000006D
:101380000000FFFF00FFFF000000000300000380DB
:101390000000E0000060000000000000000000000D
:1013A000000000000000000000000000000000003D
:1013B000000000000000000000000000000000002D
:1013C000000000000000000000000000000000001D
:1013D000000000000000000000000000000000000D
:1013E00000000FC0001FE00000300000300007F0D8
:1013F000001FF0003830003030003070001FFC005B
:101400000FBC000000000000000000000000000011
:101410000000000000000000000000000000780054
:10142000007800001800001800001BE0001FF80002
:101430001C1800180C00180C00180C00180C0018D0
:101440000C001C18007FF8007BE00000000000008A
:10145000000000000000000000000000000000008C
:10146000000000000000000000000000000000007C
:10147000000003EC000FFC001C1C00380C00300CBA
:1014800000300000300000380C001C1C000FF80079
:1014900003F0000000000000000000000000000059
:1014A00000000000000000000000000000000078C4
:1014B0000000780000180000180007D8001FF8008E
:1014C000183800301800301800301800301800307C
:1014D00018001838001FFE0007DE000000000000A2
:1014E00000000000000000000000000000000000FC
:1014F00000000000000000000000000000000000EC
:10150000000007E0001FF800181800300C003FFC36
:10151000003FFC00300000300000180C001FFC00F1
:1015200007F00000000000000000000000000000C4
:10153000000000000000000000000000000001FCAE
:101540000003FC000600000600003FF8003FF80022
:101550000600000600000600000600000600000667
:1015600000000600003FF0003FF000000000000017
:10157000000000000000000000000000000000006B
:10158000000000000000000000000000000000005B
:10159000000007DE001FFE00183800301800301869
:1015A000003018003018003018001838001FF800FC
:1015B00007D8000018000018000038000FF0000FD6
:1015C000C0000000000000000000000000007800E3
:1015D000007800001800001800001BE0001FF00059
:1015E0001C380018180018180018180018180018CF
:1015F00018001818007E7E007E7E000000000000AB
:1016000000000000000000000000000000000000DA
:1016100000000000000001800001800000000000C8
:1016200000001F80001F80000180000180000180F9
:10163000000180000180000180000180003FFC006B
:101640003FFC00000000000000000000000000005F
:10165000000000000000000000000000000000C0CA
:101660000000C0000000000000001FF0001FF0009C
:10167000003000003000003000003000003000007A
:10168000300000300000300000300000300000303A
:10169000000070001FE0001F80000000000000003C
:1016A0000000000000003C00003C00000C00000CAA
:1016B00000000CF8000CF8000CC0000D80000F803A
:1016C000000F00000F80000DC0000CE0003C7C000B
:1016D0003C7C000000000000000000000000000052
:1016E00000000000000000000000000000001F805B
:1016F000001F800001800001800001800001800047
:101700000180000180000180000180000180000153
:1017100080000180003FFC003FFC00000000000052
:1017200000000000000000000000000000000000B9
:1017300000000000000000000000000000000000A9
:101740000000F77800FFFC0039CC00318C00318CB0
:1017500000318C00318C00318C00318C00FDEF00A9
:10176000FDEF00000000000000000000000000008D
:101770000000000000000000000000000000000069
:10178000000000000000000000007BE0007FF0008F
:101790001C3800181800181800181800181800181D
:1017A00018001818007E7E007E7E000000000000F9
:1017B0000000000000000000000000000000000029
:1017C0000000000000000000000000000000000019
:1017D000000003C0000FF0001C3800381C00300C63
:1017E00000300C00300C00381C001C38000FF000DA
:1017F00003C0000000000000000000000000000026
:1018000000000000000000000000000000000000D8
:10181000000000000000000000007BE0007FF800F6
:101820001C1800180C00180C00180C00180C0018DC
:101830000C001C18001FF8001BE000180000180026
:10184000001800007F00007F000000000000000082
:101850000000000000000000000000000000000088
:10186000000007DE001FFE00183800301800301896
:10187000003018003018003018001838001FF80029
:1018800007D80000180000180000180000FE000033
:10189000FE0000000000000000000000000000004A
:1018A000000000000000000000003E78003EFC0048
:1018B00007CC000700000600000600000600000636
:1018C00000000600003FF0003FF0000000000000B4
:1018D0000000000000000000000000000000000008
:1018E00000000000000000000000000000000000F8
:1018F000000007F8000FF8001818001818001F80E3
:10190000000FF00000F8001818001838001FF00051
:101910001FE00000000000000000000000000000C8
:1019200000000000000000000000000000000C00AB
:10193000000C00000C00000C00003FF0003FF00025
:101940000C00000C00000C00000C00000C00000C4F
:1019500000000C1C0007FC0003F000000000000069
:101960000000000000000000000000000000000077
:101970000000000000000000000000000000000067
:1019800000007878007878001818001818001818E7
:10199000001818001818001818001838000FFE005A
:1019A00007DE000000000000000000000000000052
:1019B0000000000000000000000000000000000027
:1019C000000000000000000000007C3E007C3E00A3
:1019D0001818001818000C30000C300006600006C3
:1019E000600007E00003C00003C00000000000002A
:1019F00000000000000000000000000000000000E7
:101A000000000000000000000000000000000000D6
:101A10000000783C00783C0031180033980033987F
:101A2000001AB0001EF0001EF0001C60000C6000E8
:101A30000C6000000000000000000000000000003A
:101A40000000000000000000000000000000000096
:101A5000000000000000000000003E7C003E7C0012
:101A60000C300006600003C00001800003C00006C7
:101A700060000C30003E7C003E7C00000000000056
:101A80000000000000000000000000000000000056
:101A90000000000000000000000000000000000046
:101AA00000007E1F007E1F00180C000C18000C1890
:101AB0000006300006300003600003E00001C000B3
:101AC00000C0000180000180000300003FC0003F13
:101AD000C000000000000000000000000000000046
:101AE000000000000000000000001FF8001FF800C8
:101AF00018300018600000C00001800003000006DC
:101B000018000C18001FF8001FF80000000000006B
:101B100000000000000000000000000000000000C5
:101B200000000000000000E00001E0000180000172
:101B3000800001800001800001800001800003809E
:101B40000007000003800001800001800001800088
:101B500001800001800001E00000E00000000000C2
:101B600000000000000000000000000000000180F4
:101B700000018000018000018000018000018000E0
:101B800001800001800001800001800001800001CF
:101B90008000018000018000018000018000018040
:101BA00000018000000000000000000000000000B4
:101BB0000000000000000700000780000180000115
:101BC000800001800001800001800001800001C0D0
:101BD0000000E00001C000018000018000018000E1
:101BE0000180000180000780000700000000000065
:101BF00000000000000000000000000000000000E5
:101C000000000000000000000000000000000000D4
:101C10000E00001F18003BB80031F00000E000008B
:101C200000000000000000000000000000000000B4
:101C300000000000000000000000000000000000A4
:101C40002DE9F041DFF8B058002700212A4610782E
:101C500000B17F1C9079491C00B17F1C107B491C8E
:101C600000B17F1C491C12324229F0DB422F88BF91
:101C70004227C7F142072C464FF04208207800283F
:101C800055D001F01DFB411300EB91429213A0EBE4
:101C90008230B0EB570F4AD295F89201002618BB5C
:101CA0002178891E052914D8DFE801F0030308080C
:101CB0000F0FAA19012082F892010AE001F000FB3F
:101CC000C00754BF0220012000E00220A91981F8BA
:101CD0009201A91960880830A1F89401A088083001
:101CE000A1F8960123E000BF95F898010626002888
:101CF0001EBF0C2695F89E010028D1D095F8A401AE
:101D0000122600281EBF182695F8AA010028C7D061
:101D100095F8B0011E2600281EBF242695F8B601AE
:101D200000281EBF2A2695F8BC010028B8D0A41DA3
:101D3000B8F10108A2D105F5CB72082112F8040C04
:101D4000012811D014D3032807D011D2032302F89D
:101D5000043C1088C01C10800AE0022302F8043CF6
:101D60001088801C108003E013889B1C138000BF28
:101D700012F8040C28B11388B52BA4BF042002F874
:101D8000040C921D491ED9D1BDE8F0812DE9F04720
:101D9000DFF8644794F8E801012837D1D4F8F80156
:101DA000002839DC002184F8E811211DB4F8CA01AB
:101DB00000EB40035B00CD5AAC2DA4BF022184F898
:101DC000E811A4F8CC01FFF73BFF002100222346D5
:101DD000187800B111469879521C00B11146187B51
:101DE000521C00B11146521C1233422AF0DB94F807
:101DF000C20190B3B4F8C601821EA4F8C62192B203
:101E000094F88C01B8B12B2A1DDB35E002280ED1E5
:101E1000D4F8F801002804DD401EC4F8F801BDE83C
:101E2000F08700F0CDFD0320C4F8F401BAE70028E4
:101E3000BBD0BDE8F08701EB4103201D5900455A96
:101E4000083D954218DB002084F8C2010121FF20E3
:101E500084F8CE11C4F8D0010EE094F8E401C10773
:101E60000AD5012084F8C201AC21B4F8C801A4F855
:101E7000C611C01DA4F8C401D4F8E411C1F3400098
:101E800020B1B4F8C801421EA4F8C821C1F38000F3
:101E900020B1B4F8C801401CA4F8C8012346B4F826
:101EA000C8010A28BCBF0A21A4F8C811B4F8C801A7
:101EB000F028C4BFF021A4F8C8110021002218782E
:101EC00000B1491C9879521C00B1491C187B521C66
:101ED00000B1491C521C1233422AF0DB31B9D4F84C
:101EE000F401401CC4F8F40100F06AFDB4F8CA0122
:101EF00000EB40014800225C921E052A13D8DFE85F
:101F000002F0100D0B080603062323540BE00721F3
:101F100008E00422225406E0052103E002222254B4
:101F200001E00321215494F8E001032820D8DFE8E0
:101F300000F00C021616B4F8CA1101EB410004EBD4
:101F400040004288911E418012E0B4F8CA0100EBC3
:101F5000400104EB41004288921C428008E0B4F842
:101F6000CA0100EB400104EB41008288121D82800F
:101F7000002141220027002526460B233078E8B1B6
:101F8000DFF8787585FB07C77810DFF87475A1FB5B
:101F9000078E00EBD0704FEADE0E03FB105003FB00
:101FA0001E1EA2FB07A970454FEAD90928BF294682
:101FB00003FB1929814528BF2A462F46B0796D1C9D
:101FC000E8B1DFF8387585FB07C77810DFF83075A2
:101FD000A1FB078E00EBD0704FEADE0E03FB105022
:101FE00003FB1E1EA2FB07A970454FEAD90928BFB3
:101FF000294603FB1929814528BF2A462F46307BF5
:102000006D1CE8B1DFF8F47485FB07C77810DFF8C2
:10201000F074A1FB078E00EBD0704FEADE0E03FBDD
:10202000105003FB1E1EA2FB07A970454FEAD909F9
:1020300028BF294603FB1929814528BF2A462F4678
:102040006D1C1236422D99DBB4F8CA01B84225D373
:10205000002094F8E031A4F8CA012BB1022B19D06A
:102060000DD384F8E0011CE001EB4102A01C5100FB
:10207000435AF02B15DB022084F8E00111E002EB5B
:102080004200A11C40000A5A0B2A0ADA032084F8F5
:10209000E00106E0012184F8E01102E0401CA4F810
:1020A000CA01B4F8CA1101EB41025200A05C60BB46
:1020B000B4F8CA01401CA4F8CA0180B200EB400188
:1020C0004900605C08BBB4F8CA01401CA4F8CA010E
:1020D00080B200EB40014900605CB0B9B4F8CA01BD
:1020E000401CA4F8CA0180B200EB40014900605CCA
:1020F00058B9B4F8CA01401CA4F8CA0180B200EB78
:1021000040014900605C0028D2D094F8C201002848
:102110004FD0002122461078002846D0B4F8C601DE
:102120009388834241D3083B98423EDB15780020D8
:102130000023AD1E052D0CD8DFE805F003030606CD
:10214000090902200C2304E004200E2301E00220F0
:102150000D235588B4F8C46140198642A4BF5B19A9
:10216000B34222DB1078801E052815D8DFE800F086
:1021700003030A0A0E0ED4F8EC310A33C4F8EC312A
:102180000AE000BFD4F8EC010F3003E0D4F8EC0112
:1021900010F11400C4F8EC0100201070012584F83F
:1021A000C20184F8CE51C4F8D011491C921D4229B5
:1021B000B1DD94F89201002818BF04282DD0B4F89E
:1021C0009601AC2829DDB4F8C801B4F89411421E78
:1021D0009142A4BF103088421FDB3220C4F8F801BE
:1021E000012184F8E8110421D4F8F40184F8921153
:1021F000401EC4F8F40180B964200221C4F8F8013B
:1022000084F8E811D4F8EC01D4F8F0118142B8BF99
:10221000C4F8F0010020C4F8EC0194F898010028FB
:1022200018BF04282DD0B4F89C01AC2829DDB4F8DF
:10223000C801B4F89A11421E9142A4BF10308842DE
:102240001FDB3220C4F8F801012184F8E8110421D1
:10225000D4F8F40184F89811401EC4F8F40180B950
:1022600064200221C4F8F80184F8E811D4F8EC01E4
:10227000D4F8F0118142B8BFC4F8F0010020C4F8CE
:10228000EC0194F89E01002818BF04282DD0B4F862
:10229000A201AC2829DDB4F8C801B4F8A011421E8F
:1022A0009142A4BF103088421FDB3220C4F8F801ED
:1022B000012184F8E8110421D4F8F40184F89E1176
:1022C000401EC4F8F40180B964200221C4F8F8016A
:1022D00084F8E811D4F8EC01D4F8F0118142B8BFC9
:1022E000C4F8F0010020C4F8EC0194F8A40100281F
:1022F00018BF04282DD0B4F8A801AC2829DDB4F803
:10230000C801B4F8A611421E9142A4BF1030884201
:102310001FDB3220C4F8F801012184F8E811042100
:10232000D4F8F40184F8A411401EC4F8F40180B973
:1023300064200221C4F8F80184F8E811D4F8EC0113
:10234000D4F8F0118142B8BFC4F8F0010020C4F8FD
:10235000EC0194F8AA01002818BF04282DD0B4F885
:10236000AE01AC2829DDB4F8C801B4F8AC11421EA6
:102370009142A4BF103088421FDB3220C4F8F8011C
:10238000012184F8E8110421D4F8F40184F8AA1199
:10239000401EC4F8F40180B964200221C4F8F80199
:1023A00084F8E811D4F8EC01D4F8F0118142B8BFF8
:1023B000C4F8F0010020C4F8EC0194F8B001002842
:1023C00018BF04282DD0B4F8B401AC2829DDB4F826
:1023D000C801B4F8B211421E9142A4BF1030884225
:1023E0001FDB3220C4F8F801012184F8E811042130
:1023F000D4F8F40184F8B011401EC4F8F40180B997
:1024000064200221C4F8F80184F8E811D4F8EC0142
:10241000D4F8F0118142B8BFC4F8F0010020C4F82C
:10242000EC0194F8B601002818BF04282DD0B4F8A8
:10243000BA01AC2829DDB4F8C801B4F8B811421EBD
:102440009142A4BF103088421FDB3220C4F8F8014B
:10245000012184F8E8110421D4F8F40184F8B611BC
:10246000401EC4F8F40180B964200221C4F8F801C8
:1024700084F8E811D4F8EC01D4F8F0118142B8BF27
:10248000C4F8F0010020C4F8EC0194F8BC01002865
:1024900018BF04282DD0B4F8C001AC2829DDB4F849
:1024A000C801B4F8BE11421E9142A4BF1030884248
:1024B0001FDB3220C4F8F801012184F8E81104215F
:1024C000D4F8F40184F8BC11401EC4F8F40180B9BA
:1024D00064200221C4F8F80184F8E811D4F8EC0172
:1024E000D4F8F0118142B8BFC4F8F0010020C4F85C
:1024F000EC01BDE8F087000050040010E9A28B2E2B
:10250000A38B2EBA2DE9F04FDFF8E405D0F8EC11DB
:10251000D0F8D4018142C3B012D0DFF8D4150FF245
:10252000E852D1F8EC31C1F8D4314FF4807102A8EF
:1025300000F018FF032302AA0121012000F03EFF52
:10254000DFF8AC45D4F8F401D4F8D811884210D0A3
:10255000D4F8F4310FF2BC52C4F8D8314FF4807182
:1025600002A800F0FFFE032302AA0121642000F06C
:1025700025FFD4F8F001D4F8DC11884210D0D4F84B
:10258000F0310FF29C52C4F8DC314FF4807102A894
:1025900000F0E8FE032302AA0121B42000F00EFFA0
:1025A000B4F8CC1101EB410004EB4000009000783E
:1025B000002800F0858001EB4100400000240FF26C
:1025C00070560FF26C670FF268780FF664090FF619
:1025D000601A0FF65C2B01900098818804292BDB90
:1025E0000199DFF81005435A009880880022E1180D
:1025F000401E01F09AF90199DFF8F804435A009857
:1026000080880022E118801E01F08FF90199DFF81F
:10261000E404435A009880880022E118C01E01F0AB
:1026200084F90199DFF8CC04435A0098808800228D
:10263000E118001F01F079F90025009801780022C7
:10264000891E052916D8DFE801F00305070B0F13D3
:1026500032880FE03A880DE0B8F800200AE000BFA9
:10266000B9F8002006E000BFBAF8002002E000BF81
:10267000BBF80020DFF878040199801C2037435A0A
:102680000098E1188388E81801F04FF96D1C203696
:10269000082D0BF1200B0AF1200A09F1200908F19D
:1026A0002008CADB641CFE3FFE3E102CABF1FE0B83
:1026B000AAF1FE0AA9F1FE09A8F1FE08FFF68CAF07
:1026C0005FF000050FF66826DFF82444B4F8C8016F
:1026D00032882918B42001F028F9B4F8C801328CE6
:1026E0002918B52001F021F9B4F8C801B6F8402046
:1026F0002918B62001F019F9B4F8C801B6F860201D
:102700002918B72001F011F9B4F8C801B6F88020F3
:102710002918B82001F009F9B4F8C801B6F8A020CA
:102720002918B92001F001F9B4F8C801B6F8C020A1
:102730002918BA2001F0F9F8B4F8C801B6F8E02079
:102740002918BB2001F0F1F86D1CB61C102DBDDB63
:102750000FF60C300090254605F5CA7B5FF00804A3
:102760001BF8020C00284DD0DDF800800FF6C029C0
:102770000FF61C375FF00006BBF800003118BBF8FD
:1027800002000022801E01F0D0F8BBF800003118D2
:10279000BBF802000022401E01F0C7F84FF0000A0B
:1027A0001BF8020C0022012806D009D3032806D00A
:1027B00038BFB8F8002003E0B9F8002000E03A88FC
:1027C000BBF80000BBF8023031180AEB030001F03F
:1027D000ACF80AF1010ABF1DBAF1080F08F10608AA
:1027E00009F10609DCDB761C2E3F022EA8F12E082B
:1027F000A9F12E09C0DD1BF8020C042804BF00213A
:102800000BF8021C641E0BF1060BA9D195F8C2014E
:10281000002846D00FF618290FF644280FF6702529
:10282000DFF8CC72B7F8C4012118B7F8C60100224E
:10283000093001F07AF8B7F8C4012118B7F8C601D9
:102840000022083001F071F85FF0000697F8C2012D
:102850000022012806D009D3032806D038BFB8F8D3
:10286000002003E0B9F8002000E02A88B7F8C4018E
:10287000B7F8C6312118F01801F057F8761CAD1DD5
:10288000082E08F1060809F10609DFDB641C2E3D5D
:10289000022CA8F12E08A9F12E09C3DD43B0BDE832
:1028A000F08F95F8CE010028F8D0002185F8CE11E0
:1028B0005FF000058E48B0F8C411B0F8C6010022E0
:1028C0006118281801F031F86D1C092DF2DD641C27
:1028D000022CEDDD8648D0F8D011FF29DED0044669
:1028E0000025271DD4F8D00100EB40014800A31CAF
:1028F00000221E5A385AA91901F017F8D4F8D0014D
:1029000000EB40014800A31C00221E5A385AA919A6
:10291000401C01F00AF8D4F8D00100EB4001480057
:10292000A31C00221E5A385AA919801C00F0FDFF72
:10293000D4F8D00100EB40014800A31C00221E5A2D
:10294000385AA919C01C00F0F0FFD4F8D00100EBF0
:1029500040014800A31C00221E5A385AA919001D24
:1029600000F0E3FFD4F8D00100EB40014800A31CC5
:1029700000221E5A385AA919401D00F0D6FFD4F87B
:10298000D00100EB40014800A31C00221E5A385A17
:10299000A919801D00F0C9FFD4F8D00100EB400157
:1029A0004800A31C00221E5A385AA919C01D00F065
:1029B000BCFF6D1C102D95DB43B0BDE8F08F00000F
:1029C0002DE9F043DFF8288181B04FF4FE72002139
:1029D000404601F049FB4FF0FF30C8F8D401C8F879
:1029E000D801C8F8DC0100240020C8F8EC01C8F8C0
:1029F000F0010320C8F8F4013F4800F0DAFC00259C
:102A000000222946204600F090FF6D1CB5F5A07FFE
:102A1000F6DB641CF02CF2DB002647464FF00B0976
:102A2000364886FB0010451005EBD57509FB15648B
:102A3000C5F10405042D0DD8DFE805F003060608EE
:102A4000080006233B7012E004200FE002213970D9
:102A50000DE000BF00F034FC294980FB012101EBAF
:102A6000D17101EB4103A0EB4300801C38702401BD
:102A70001D342D017C804235BD80761CBF1D422E49
:102A8000CEDB002088F88C0188F8920188F8980144
:102A900088F89E0188F8A40188F8AA0188F8B00196
:102AA00088F8B60188F8BC0188F8C201A8F8CA0104
:102AB00088F8E00142247D20A8F8C801FFF766F9F4
:102AC000FFF720FD641EF9D101B0BDE8F08310B519
:102AD00001F0D4FA0B4C21681431814207D201F085
:102AE000CDFA2060FFF752F9BDE810400AE510BDAD
:102AF0005004001052040010B0030010E9A28B2E05
:102B0000ABAAAA2AA807001053434F5245533A20B4
:102B1000256400004C495645533A202564000000C6
:102B20004D41582053434F5245533A2025640000ED
:102B30000000000000000000FFFF00000000000097
:102B400000000000FFFF0000000000000000000087
:102B500000000000000000000000FFFF0000000077
:102B60000000FFFF00000000000000000000000067
:102B70000000000000000000FFFFFFFFFFFFFFFF5D
:102B8000FFFFFFFFFFFF000000000000000000004B
:102B9000000000000000FFFFFFFF0000FFFFFFFF3D
:102BA000FFFF0000FFFFFFFF00000000000000002B
:102BB00000000000FFFFFFFFFFFFFFFFFFFFFFFF21
:102BC000FFFFFFFFFFFFFFFFFFFF0000000000000F
:102BD00000000000FFFF0000FFFFFFFFFFFFFFFFFF
:102BE000FFFFFFFFFFFF0000FFFF000000000000ED
:102BF00000000000FFFF0000FFFF000000000000D9
:102C000000000000FFFF0000FFFF000000000000C8
:102C100000000000000000000000FFFFFFFF0000B8
:102C2000FFFFFFFF000000000000000000000000A8
:102C30000000000000000000FFFF00000000000096
:102C400000000000FFFF0000000000000000000086
:102C500000000000FFFF00000000FFFF0000000078
:102C60000000FFFF00000000FFFF00000000000068
:102C700000000000FFFF0000FFFFFFFFFFFFFFFF5E
:102C8000FFFFFFFFFFFF0000FFFF0000000000004C
:102C900000000000FFFFFFFFFFFF0000FFFFFFFF3E
:102CA000FFFF0000FFFFFFFFFFFF0000000000002C
:102CB00000000000FFFFFFFFFFFFFFFFFFFFFFFF20
:102CC000FFFFFFFFFFFFFFFFFFFF0000000000000E
:102CD0000000000000000000FFFF0000FFFFFFFFFA
:102CE000FFFFFFFFFFFF00000000000000000000EA
:102CF0000000000000000000FFFF000000000000D6
:102D000000000000FFFF00000000000000000000C5
:102D1000000000000000FFFF0000000000000000B5
:102D2000000000000000FFFF0000000000000000A5
:102D30000000000000000000000000000000FFFF95
:102D4000FFFF000000000000000000000000000085
:102D5000000000000000000000000000FFFFFFFF77
:102D6000FFFFFFFF00000000000000000000000067
:102D700000000000000000000000FFFFFFFFFFFF59
:102D8000FFFFFFFFFFFF0000000000000000000049
:102D90000000000000000000FFFFFFFF0000FFFF39
:102DA000FFFF0000FFFFFFFF000000000000000029
:102DB0000000000000000000FFFFFFFFFFFFFFFF1B
:102DC000FFFFFFFFFFFFFFFF00000000000000000B
:102DD00000000000000000000000FFFF0000FFFFF7
:102DE000FFFF0000FFFF00000000000000000000E7
:102DF0000000000000000000FFFF000000000000D5
:102E0000000000000000FFFF0000000000000000C4
:102E100000000000000000000000FFFF00000000B4
:102E200000000000FFFF00000000000000000000A4
:102E30000000000000000000000000000000FFFF94
:102E4000FFFF000000000000000000000000000084
:102E5000000000000000000000000000FFFFFFFF76
:102E6000FFFFFFFF00000000000000000000000066
:102E700000000000000000000000FFFFFFFFFFFF58
:102E8000FFFFFFFFFFFF0000000000000000000048
:102E90000000000000000000FFFFFFFF0000FFFF38
:102EA000FFFF0000FFFFFFFF000000000000000028
:102EB0000000000000000000FFFFFFFFFFFFFFFF1A
:102EC000FFFFFFFFFFFFFFFF00000000000000000A
:102ED000000000000000000000000000FFFF0000F4
:102EE0000000FFFF000000000000000000000000E4
:102EF00000000000000000000000FFFF0000FFFFD6
:102F0000FFFF0000FFFF00000000000000000000C5
:102F10000000000000000000FFFF0000FFFF0000B5
:102F20000000FFFF0000FFFF0000000000000000A5
:102F3000000000000000000000000000FFFFFFFF95
:102F4000FFFFFFFF00000000000000000000000085
:102F5000000000000000FFFFFFFFFFFFFFFFFFFF7B
:102F6000FFFFFFFFFFFFFFFFFFFF0000000000006B
:102F700000000000FFFFFFFFFFFFFFFFFFFFFFFF5D
:102F8000FFFFFFFFFFFFFFFFFFFFFFFF000000004D
:102F900000000000FFFFFFFFFFFF00000000FFFF39
:102FA000FFFF00000000FFFFFFFFFFFF0000000029
:102FB00000000000FFFFFFFFFFFFFFFFFFFFFFFF1D
:102FC000FFFFFFFFFFFFFFFFFFFFFFFF000000000D
:102FD00000000000000000000000000000000000F1
:102FE00000000000000000000000000000000000E1
:102FF000000000000000FFFFFFFF00000000FFFFD7
:10300000FFFF00000000FFFFFFFF000000000000C6
:103010000000000000000000FFFFFFFF00000000B4
:1030200000000000FFFFFFFF0000000000000000A4
:10303000000000000000000000000000FFFFFFFF94
:10304000FFFFFFFF00000000000000000000000084
:10305000000000000000FFFFFFFFFFFFFFFFFFFF7A
:10306000FFFFFFFFFFFFFFFFFFFF0000000000006A
:1030700000000000FFFFFFFFFFFFFFFFFFFFFFFF5C
:10308000FFFFFFFFFFFFFFFFFFFFFFFF000000004C
:1030900000000000FFFFFFFFFFFF00000000FFFF38
:1030A000FFFF00000000FFFFFFFFFFFF0000000028
:1030B00000000000FFFFFFFFFFFFFFFFFFFFFFFF1C
:1030C000FFFFFFFFFFFFFFFFFFFFFFFF000000000C
:1030D00000000000000000000000000000000000F0
:1030E00000000000000000000000000000000000E0
:1030F0000000000000000000FFFFFFFF0000FFFFD6
:10310000FFFF0000FFFFFFFF0000000000000000C5
:1031100000000000FFFFFFFF0000000000000000B3
:103120000000000000000000FFFFFFFF00000000A3
:103130000000000000000000000000000000FFFF91
:10314000000000000000000000000000000000007F
:10315000000000000000000000000000FFFFFFFF73
:10316000FFFF000000000000000000000000000061
:10317000000000000000000000000000FFFFFFFF53
:10318000FFFF000000000000000000000000000041
:1031900000000000FFFFFFFFFFFFFFFFFFFFFFFF3B
:1031A000FFFFFFFFFFFFFFFFFFFF00000000000029
:1031B0000000FFFFFFFFFFFFFFFFFFFFFFFFFFFF1D
:1031C000FFFFFFFFFFFFFFFFFFFFFFFF000000000B
:1031D0000000FFFFFFFFFFFFFFFFFFFFFFFFFFFFFD
:1031E000FFFFFFFFFFFFFFFFFFFFFFFF00000000EB
:1031F0000000FFFFFFFFFFFFFFFFFFFFFFFFFFFFDD
:10320000FFFFFFFFFFFFFFFFFFFFFFFF00000000CA
:103210000000FFFFFFFFFFFFFFFFFFFFFFFFFFFFBC
:10322000FFFFFFFFFFFFFFFFFFFFFFFF00000000AA
:103230000000FFFF00000000FFFF00000000FFFF94
:1032400000000000FFFF00000000FFFF0000000082
:10325000FFFF00000000FFFF00000000FFFF000074
:1032600000000000000000000000FFFF0000FFFF62
:103270000000FFFF000000000000FFFF0000000052
:103280000000FFFF0000FFFF0000FFFF0000000044
:10329000000000000000FFFF000000000000FFFF32
:1032A000000000000000FFFF0000FFFF0000FFFF24
:1032B000000000000000FFFF000000000000FFFF12
:1032C000F0B5244C244A2078244B6FF0004150BBC9
:1032D0000820656803FB05250E46B5FBF6F601FBE5
:1032E0001655401E6560F4D11D4D2E4610206768AE
:1032F00003FB07278C46B7FBFCFC01FB1C776760D0
:1033000046F8047B8E4603FB0727B7FBFEFE01FB56
:103310001E776760401E46F8047BE8D1E86FC5F869
:10332000800001252570606803FB00220B46B2FB7C
:10333000F3F301FB13210A4A616092F8803003F035
:103340001F0352F82300C2F8800042F8231020F037
:103350004040F0BDC80300105FF36E3C0D661900DD
:103360004C06001008B438B585B009AC00250494AB
:10337000039500290EBF01950190491E0291009509
:1033800004AB01A9074878441A3000F07DFE01998A
:1033900001B10D70002858BF039806B030BC5DF82D
:1033A00008FB00BF13360000DFF8FC2310605160FB
:1033B0007047DFF8F4138860704700002DE9F04F84
:1033C000174687B0814638780024002670B1761CF5
:1033D000787858B1B878761C40B1F878761C002817
:1033E0001EBF761C17F8040F0028F0D1DFF8B87361
:1033F000B8688088BE27012BB7FBF0F707D0022BF7
:1034000002BFC9F10009BE1B00FB069903E0BE1B09
:10341000464309EB5609ADF80240ADF80C10029294
:10342000ADF80090DFF8804353E0057804E02D020A
:10343000807845EA01450543BDF80000E0600027BB
:103440001FFA89F02061B8F1000FA1688A886261D3
:10345000C988A161E061BDF80000206200F023800E
:1034600008EB0A00401EC01B25FA00F1CA07216ABA
:10347000E06954BFA288228800F057FA216A491CEB
:103480002162E06862691218914209DB2062E169F9
:10349000491CE1612069A26912189142A8BFE0614C
:1034A0007F1C4745DCD305980BF1010B834509F1DF
:1034B000010938D3A068BDF800108288029851181D
:1034C000ADF80010411CBDF802000291401CADF89F
:1034D000020002980178A9B3A268BDF8020093889F
:1034E0005843C0F1BE00984680B240452AD3DB1D48
:1034F000D0881268BDF80C909D10203903EB5573ED
:103500004143DB105943114408F107020192931023
:1035100002EB5372D61000284FF0000BC8EBC60A1E
:10352000C8D00590049104980BFB06F1012E0844C5
:103530003FF47BAF022E017845787FF478AF45EAFF
:10354000012579E707B0BDE8F08F00002DE9F04FC5
:10355000DFF85422926887B0D28810FB02F30A4643
:10356000107850B1507840B1907830B1D0780028C0
:103570001CBF12F8040F0028F4D100250391ADF808
:1035800008300095DFF8204255E0077804E03F025C
:10359000807847EA01470743BDF80000E060B8F1D2
:1035A000000F1FFA89F020614FF0000BA1688A8894
:1035B0006261C988A161E061BDF80000206225D088
:1035C00008EB0A00401EA0EB0B0027FA00F1CA0727
:1035D000216AE06954BFA288228800F0A6F9216A16
:1035E000491C2162E0686269121891420ADB20627C
:1035F000E169491CE1612069A26912189142A8BFE2
:10360000E06100BF0BF1010BC345D9D305986D1CD8
:10361000854209F1010937D3A068BDF800108288FE
:1036200003985118ADF80010411CBDF80200039139
:10363000401CADF8020003980178A1B3A268BDF860
:10364000020093885843C0F1BE00984680B24045BE
:1036500029D3DB1DD0881268BDF808909D10203951
:1036600003EB55734143DB105943114408F1070242
:1036700001929310002502EB5372D6100028C8EB7C
:10368000C60AC9D005900491049805FB06F1012EE5
:1036900008443FF47AAF022E017847787FF477AF81
:1036A00047EA012778E707B0BDE8F08F2DE9F04F32
:1036B0000D46114680460024A2EB0802AA46002AC5
:1036C000A3EB0A02CCBF0E1A461A002A36B2D8BFA4
:1036D000EA1A814227BF012101204FF0FF30014645
:1036E000AB4212B227BF4FF0010C01234FF0FF3362
:1036F0009C46B346934585B006DB06EBD6750021A4
:1037000000236D10914607E0002002EBD275B14610
:10371000844693466D101646002E41D403910290C4
:10372000CDF804C0CDF80030DFF8C8714FF6FF7354
:103730001FFA88F098423A681CBF1FFA8AF0984234
:1037400005D092B21FFA88F100F0EFF816E0396A5E
:10375000F86992B200F0E9F8396A491C3962F868F0
:103760007A691218914209DB3862F969491CF961DA
:103770003869BA6912189142A8BFF8614D442DB258
:103780005D4505DB03980199A5EB0B0580448A4450
:10379000641C0298009922B2964280448A44C5DA99
:1037A00005B0BDE8F08F000084070010012900DC9F
:1037B00070472DE9F24F86B0009000EB8100009C2D
:1037C00030F8023C30F8042C61882088FFF76EFF47
:1037D0000099BDF818000024401E82B2002A00F0B3
:1037E00085800B5FB1F90250091D9BB20A88B1F8C0
:1037F00002B09946A2EB09061FFA85FC002E664628
:10380000ABEB0607CCBFD51A9D1A002F2DB2D8BF3F
:10381000ACEB0B079A4227BF012201234FF0FF3385
:103820001A463FB2E345AB462CBF4FF0010C4FF0B8
:10383000FF3CBB45E64607DB002205EBD578964604
:103840004FEA6808BA4608E0002307EBD778AA4693
:103850009C46BB464FEA68083D46002DBCD4049206
:103860000393CDF808C0CDF804E00091ADF818003E
:10387000DFF880704FF6FF701FFA89F383423A68D1
:103880001CBFB3B2834206D092B21FFA89F1B0B224
:1038900000F04BF816E0396AF86992B200F045F88A
:1038A000396A491C3962F8687A691218914209DB51
:1038B0003862F969491CF9613869BA69121891428C
:1038C000A8BFF861D0440FFA88F8D84505DB049802
:1038D0000299A8EB0B0881448E1901990398641C86
:1038E0008E1922B295428144C4DA71E707B0BDE86F
:1038F000F08F000084070010DFF8101701204864E3
:10390000704740F209129142B8BFC9280CDA4FF44F
:10391000D2724FF0005302FB0010184400F5CC4166
:103920004FF0000C81F800C07047034640F20910C8
:103930008142B8BFC92B16DA48313E3342B9581814
:10394000421000EB927C4FEAAC0CB0EB8C0001D142
:10395000002200E002224FF4D2704FF0005C00FB26
:1039600003130CF8032070472DE9F04F81B00024B9
:103970002DED048B92B001F081FB06A800210022FE
:1039800000231EC01EC01EC001AD002600278E46AB
:10399000A5E8C040C0C5DFF88C4600914FF48033E5
:1039A000206940F0805020610025206900F080509F
:1039B00000900098DFF870060091026842F480429F
:1039C00002600122006800F48040009006A800997F
:1039D000069202214FF480020C910D92082140F2D0
:1039E00035120E910F920221042207931091119229
:1039F00001F060FB022102910F204FF4A0510190D1
:103A0000049105910396042101A801F00FFD4FF0E8
:103A100080624FF4C001002001F097FD01A8002151
:103A2000002200230EC006C00095206840F08000F0
:103A30002060216801F0800100914FF480710098AE
:103A40000092226842F0010222600222206800F007
:103A5000010000900098DFF8C8050292019103224E
:103A600003930492059301A901F0F6FD009500224D
:103A700021680FF2EC5541F480012160002120689B
:103A800000F48000009000240098442001F0E9FE3A
:103A9000442001F00FFF02A800210022002380E84B
:103AA0001E00D5E90067CDE90067DFF88005DFF883
:103AB0005C1508604A608A6008460B22C260046197
:103AC0004C61846101F01FFF4FF48050029002A905
:103AD000DFF8380501F0EEFF009401946946DFF845
:103AE0002C0502F0A9F842F260764FF00055022250
:103AF0003146284602F0EAF805F5C3774FF49C7486
:103B000002221E21384602F01BF9641E07F5D27707
:103B1000F6D1A8191821039002464C1001EB9476B7
:103B2000B610A1EB86040220E40000FA04F4E4439A
:103B3000134624F0FD3431201C605C600833401EC5
:103B4000FAD1491CB1F59C7F02F5D272E5DB4FF644
:103B5000F07000902A18DFF8D834DFF8B004DFF8EE
:103B6000C074294601F044FF00214FF6FF70FFF7B3
:103B70001BFCDFF8C004DFF89454FFF71AFC9FED3C
:103B80009A8ADFED9A8A9FED9A9A2BE20A2002F038
:103B900019F9E86C411C1428E9641ADD0020E86476
:103BA000286D411C296548B1022801D003D309E0E2
:103BB0000FF2A0410BE00FF2904107E00FF27C41C1
:103BC000022004E0002028650FF288410320FFF75F
:103BD000BDFCAC6C00EE904AF8EEE00A9FED850A61
:103BE000C0EE809AB0EE690A02F0F0F9F0EE680AD1
:103BF00040EE090ABDEEE00A10EE101AADF8021010
:103C0000B0EE690A02F0E0F9F0EE480A40EE090A67
:103C1000BDEEE00A10EE100AADF80000DFED750A07
:103C200004F1D10000EE100AB8EEC00AC0EE209AEE
:103C3000B0EE690A02F0CAF9F0EE680A40EE090A2D
:103C4000BDEEE00A10EE100AADF80600B0EE690A0B
:103C500002F0BAF9F0EE480A40EE090A04F5D17410
:103C6000BDEEE00A10EE100A00EE104AB8EEC00AEF
:103C7000DFED600AADF80400C0EE209AB0EE690AEC
:103C800002F0A4F9F0EE680A40EE090ABDEEE00A7F
:103C900010EE100AADF80A00B0EE690A02F094F9CD
:103CA000F0EE480A40EE090ABDEEE00A10EE100AF6
:103CB000ADF8080003216846FFF778FD4FF6FF7462
:103CC00021460020FFF770FBAE6C06F59D7600EEF6
:103CD000106AB8EEC00ADFED470AC0EE209AB0EED7
:103CE000690A02F073F9F0EE680A40EE090ABDEEC7
:103CF000E00A10EE101AADF80210B0EE690A02F0F8
:103D000063F9F0EE480A40EE090ABDEEE00A10EE53
:103D1000100AADF80000DFED370A06F1D10000EE21
:103D2000100AB8EEC00AC0EE209AB0EE690A02F09E
:103D30004DF9F0EE680A40EE090ABDEEE00A10EE19
:103D4000100AADF80600B0EE690A02F03DF9F0EE97
:103D5000480A40EE090A06F5D176BDEEE00A10EEFB
:103D6000100A00EE106AB8EEC00ADFED220AADF8C4
:103D70000400C0EE209AB0EE690A02F027F9F0EED6
:103D8000680A40EE090ABDEEE00A10EE100AADF82E
:103D90000A00B0EE690A02F017F9F0EE480A40EEA8
:103DA000090ABDEEE00A10EE100AADF80800032182
:103DB0006846FFF7FBFC00212046FFF7F5FAA86CE8
:103DC0009349401C80FB0121091201EBD17140F2A3
:103DD0006A2303FB1100A86400206864686C002853
:103DE000FCD000216964FDE000004842000020434F
:103DF000000020420000C842FEF769FE012138465B
:103E000001F004FD95F8401085F840008142F3D29E
:103E1000039A18210226481001EB9074A410A1EB1C
:103E20008404E40006FA04F4E443134624F0FD3469
:103E300031201C605C600833401EFAD1491CB1F58A
:103E40009C7F02F5D272E6DB7A48FFF7B2FA0121D5
:103E5000384601F0DBFC95F8401085F840008142BF
:103E6000C0F0A28002F02CFD002300226FF01301AD
:103E70006848694C02F0B8F8A96C674800235FF005
:103E8000000209B202F0B0F84FF003084FF00D093C
:103E90004FF0A00A40F2D66B4FEA8800C0B202F0A1
:103EA000F6FAA96C08EB8800490001EBC001C8B222
:103EB00002F08EF800F57A70E082A4F80EB0A8F156
:103EC00001085648E08002F085FB5FFA89F002F0B5
:103ED000DEFAA86C0AEB4001C8B202F079F800F5EE
:103EE0007A70E082A4F80EB06FF0F900E08002F082
:103EF00071FB09F10100C0B202F0C9FAA86C0AEB2B
:103F000040002830C0B202F063F800F57A70E08219
:103F1000A4F80EB04FF4AF70E08002F05BFB09F143
:103F20000200C0B202F0B3FAA86C0AEB40005030B5
:103F3000C0B202F04DF800F57A70E082A4F80EB03D
:103F400040F2B630E080ABF5167B02F043FBB8F1EF
:103F5000000FAAF1280AA9F104099DD5A86C401CFC
:103F6000A86400216964686C0028FCD06964182189
:103F7000039A481001EB9074A410A1EB8404E400B0
:103F800006FA04F4E443134624F0FD3431201C60A7
:103F90005C600833401EFAD1491CB1F59C7F02F5E4
:103FA000D272BFF654AFE4E7039A1821481001EB30
:103FB0009074A410A1EB8404E40006FA04F4E44332
:103FC000134624F0FD3431201C605C600833401E31
:103FD000FAD1491CB1F59C7F02F5D272E6DB154897
:103FE000FFF7E7F90121384601F010FC014695F88A
:103FF000402085F8401000208A4238BF0120002868
:104000003FF4C4ADFEF7DCFCF8E60000300700101A
:1040100045990B6A2000001000000010AEFCFFFF65
:1040200000000240303802400070004000000140B3
:1040300002000240A8030010704700002048656C91
:104040006C6F20202020000020776F726C6420208D
:1040500020200000202020202020202020200000E0
:10406000000000000000000010B5044610460A469B
:104070000146204601F064FE204610BD014840681C
:10408000704700BFB80300102DE9F04F0FF2A41CD9
:10409000A1B0DCE90089CDE900892A9DDFF8109CF8
:1040A000049100248DF843500D944FF0FF38824660
:1040B00016461F460FE0B3462C461BF8011B04981A
:1040C000D0470028049000F0A2800D98401C641E88
:1040D0000D90F2D176193078252808D100210022E0
:1040E0000791089209910A920B910C920DE06A4691
:1040F0004146304602F04AFC050001D10D98A1E08E
:10410000D9D50125E6E741F0010116F8010F202875
:10411000F9D023280CD02B2804D02D2805D0302806
:1041200009D076E041F00201EFE741F00401ECE74D
:1041300041F00801E9E741F01001E6E70F9209E0DC
:104140000F98484505DA00EB800402EB4402303A50
:104150000F92761C3278A2F130000A28F0D3307822
:104160002E2818BFCDF8388022D116F8010F2A2842
:1041700007D138683860761C50F8042B38600E92EE
:1041800016E02D280CBF761C002000220E920AE0BB
:1041900040B90E9A4A4505DA02EB820403EB440368
:1041A000303B0E93761C3378A3F130020A2AEFD30A
:1041B000ADF8401021A0317802F0F2FB08B116F8FA
:1041C000010B8DF842009DF84200682804D1307838
:1041D00068280AD1622105E06C2804BF30786C2879
:1041E00003D171218DF84210761C12A806903A4630
:1041F00016F8013B02A9504600F064F838B912AA3B
:1042000002A9504600F0CAF900287FF564AF404685
:1042100018E02A2892D13A683A6052F8040B3A60C2
:1042200000280F9003D540420F9041F00401761C06
:1042300095E700000000000000000000686A6C7450
:104240007A4C000021B0BDE8F08F622820D06828A9
:1042500011D06A2803D06C2827D0712825D108688E
:10426000C01D20F007000860D0E900230830086076
:10427000194610467047002A0A680A60106803D081
:10428000121D0A6000B217E0121D0A6080B217E02A
:10429000002A0A680A60106803D0121D0A6040B242
:1042A0000AE0121D0A60C0B20AE0002A0A680A6029
:1042B000106803D0121D0A60C1177047121D0A60F2
:1042C000002170477CB50D4611461C462E69B4F19D
:1042D000250200F051811C3A00F08680121F022A4C
:1042E00040F282800E3A00F00B81521F5AD0093AF8
:1042F0007AD0921E16D0521E35D0521E022A73D981
:10430000121F30D0521F00F09A80521E4AD0521E07
:1043100000F0E480D21E00F00181921E42D0D21E35
:1043200040D02FE195F83A406C2C09D06869421CC6
:104330006A610A680A6052F8043B0A6033542BE150
:104340000A680A6052F8043B0A6000930022019256
:104350004FF0FF332B636A46294600F09AF9002894
:1043600040F11A8105E195F83A000122FFF76DFF4F
:10437000C5E900010023994204DA6869411C6961BA
:104380002D220DE0288F810704D56869411C6961E1
:104390002B2205E0C00722D56869411C69612022F3
:1043A00032541CE095F83A000022FFF74EFFC5E9B1
:1043B000000195F83800010711D5D5E90023002048
:1043C000834208BF82420AD044F02000782806D1F8
:1043D000686930213154401C421C6A6134542146C2
:1043E00068693044E86087E00868C01D20F0070075
:1043F0000860D0E9002308300860C5E90023D5E94A
:104400000001C80F04D06869411C69612D220DE0CC
:10441000288F810704D56869411C69612B2205E05A
:10442000C00704D56869411C69612022325468695B
:104430003044E8602146284600F03AFAACE005F145
:104440003A02507820B14FF0FF340FF6343074E068
:104450001078622808D0682824D06A2812D06C28E6
:104460002ED071280ED02BE00A680A6052F8040B97
:104470000A6020B94FF0FF340FF61C305DE0E96AA6
:10448000017089E00A680A6052F8040B0A6020B9DA
:104490004FF0FF340FF600304FE0EA6AD317C0E95F
:1044A000002379E00A680A6052F8040B0A6020B918
:1044B0004FF0FF340FF6E0203FE0E96A01806BE047
:1044C0000A680A6052F8040B0A6020B94FF0FF3402
:1044D0000FF6C42031E0E96A01605DE00A680A6015
:1044E00052F8040B0A60002120F0000221F0FF3393
:1044F000C5E90023EE607821284600F02DF94BE055
:104500006C2285F83A200B680B6053F8042B0B6083
:1045100052BB4FF0FF340FF6B4200EE095F83A206E
:104520006C2AF0D00868086050F8044B0860EC6012
:104530003CB94FF0FF340FF6782002F049FA201A08
:1045400076BD2E6B002E04D5204602F061FA04469B
:1045500008E032460021204602F076FA002814BF17
:10456000041B3446AC6117E0294600F092F800289D
:1045700012D54FF0FF3076BD6869411C6961252274
:10458000325409E06969481C68612522725421008F
:1045900002D0431C6B613454002076BD2DE9F041FC
:1045A0000E4605469046726B7069316AB46A121AFB
:1045B000B069521A716A121AF069521A121A96F8F0
:1045C0003800141B41070DD4002C0BDD2746B068C2
:1045D0002021A8470028B06057D0F06A401C7F1EF9
:1045E000F062F4D1736942463146284600F0B0FCCF
:1045F00000284AD1376A002F0ADDB0683021A84769
:104600000028B06041D0F06A401C7F1EF062F4D1F7
:10461000B369F2683146284600F09AFCA8BB776A75
:10462000002F09DDB0683021A847B06068B3F06A98
:10463000401C7F1EF062F5D1F068B169F369421841
:104640003146284600F084FCF8B9B76A002F09DD2E
:10465000B0683021A847B060B8B1F06A401C7F1E36
:10466000F062F5D196F8380041070BD5002C09DD32
:10467000B0682021A847B06038B1F06A401C641EC1
:10468000F062F5D10020BDE8F0814FF0FF30BDE8C9
:10469000F0812DE9F8470D46A3B02F6B002F064699
:1046A000904648BF6FF000470FF63C1402F0F8F94F
:1046B000D4E90023696B4018CDE90123812828BF84
:1046C0004FF0FF3042D20024002F33DDD8F8001025
:1046D00001AA684602F05CF98146B9F1000F38D4AE
:1046E000D8F8000010B9B9F1010932D44F4521DBE7
:1046F0006869484481280AD30021696303AA2946CE
:104700003046FFF74BFF040014D40020686103AB70
:10471000D5F814A04A46694603EB0A0002F0C6F930
:10472000CA44C5F814A058F8040B002818BFA7EB1A
:104730000907C9D14CB903AA29463046FFF72EFF15
:10474000044614B9002068616863204624B0BDE8BF
:10475000F0874FF0FF34F8E72DE9FC4707468C4619
:104760003E69BCF16F0F08BF082405D04CF0200053
:10477000782814BF0A2410243C25D7E90023BCF173
:10478000640F18BFBCF1690F9046994606D100210D
:104790008B4203DAD8F1000869EB49094FF0000AAF
:1047A000D14508BFD0451FD1386BE8B9082C4BD193
:1047B00097F83800010747D530203B2586F83B00A5
:1047C00042E000280ED597F8380000F014001028B9
:1047D00008D17B6B7969386A5B1A1B1A9A1A002A0E
:1047E000C8BF3A62BDE8F3878DF800C0404649462D
:1047F0002246E31702F0AEF93032D0B26D1E3A28ED
:10480000019504DB9DF80000A0F151018A18725552
:10481000404649462246E31702F09CF98946804605
:10482000D14508BFD04503D0F86871198842DDD35F
:10483000082C09D197F83800010705D5705D30289C
:1048400002D06D1E30207055C5F13C02BA6171195D
:10485000F960386B8242B4DA821A3A624FF6EF702E
:10486000398F01403987BDE8F3872DE9D0430646EB
:104870000F4614464FF00008DFF8389412E0E007C6
:1048800007D542464B463046394602F07BFA06468B
:104890000F464046494642464B4602F073FA6410C2
:1048A00080468946002CEAD130463946BDE8D0839F
:1048B0002DE9F34F054641F020048DB0D5E900897C
:1048C000612C02AE09D0286B002848BF062003D413
:1048D00008BF672C01D101202863D5E900235800C7
:1048E0004015401C0ED119030CD00320A8619DF87F
:1048F000381061391A2902D20FF2F46111E00FF277
:10490000F4610EE059004915491C0FD118030DD16F
:104910000320A8619DF8381061391A2914D30FF2C9
:10492000DC61E868032202F0C1F8D3E1194621F006
:104930000043B3F5801F10460DD20027BB4208BFCD
:10494000BA42019703D111E00FF2AC61E9E701AA85
:1049500002F0EAFA0AE0DFF8607307EB1352DFF8BF
:104960005C3301921940DFF858331943C5E900015F
:10497000612C0ED1E86830210170821CEA609DF83C
:10498000381061290CBF7821582141706869801C5A
:104990006861D5E900AB2BF0004300202AF000024B
:1049A000834204BF8242002300F05B81612C40F00F
:1049B000AA80286B002847BF21210091401C00904D
:1049C000009F7F1C404649460022002302F0E4FA83
:1049D000D94601998DF8082038BF89F00049091F90
:1049E000002FD04601910DF1090040F34981B349F0
:1049F000DFF8D0B20C91064640464946002200231B
:104A000002F0E2FA80F03B814800400D00F11C0208
:104A100011D0002A0FDD40F2FF70824205DB09F061
:104A2000004040EA0B01002013E00C98014041EAED
:104A3000025140460DE029F00043002028F000021A
:104A4000834208BF82420FBF40461C22404602F00C
:104A5000D3FA8046894602F06DFBFF1F002F044603
:104A600009DD02F085FB02460B464046494602F04E
:104A700091FB80468946F01D072104E004F00F02F7
:104A800000F8012D2411002C01DD491EF6D5491E28
:104A90005CBF002200F8012DF9D5ECE0002019469A
:104AA00002AA0A4400E05B1E12F80149491E844232
:104AB000F9D00F2804D10DF10900425C521C425478
:104AC000002904D50198001D02AE5B1C0190591EFF
:104AD00012D49DF838007218A0F13A07147804F146
:104AE00030085FFA88F43A2CA8BFB844491E02F88F
:104AF0000189F3D58DF83800286B002840F1B0808B
:104B0000591E2963ACE0404649460022002302F0CA
:104B100043FA019938BF89F0004947F29750414361
:104B2000694A91FBF2F20192D2F1070204DD40469C
:104B30004946FFF79AFE0AE0524200206349FFF718
:104B400094FE02460B464046494602F095FB8046DD
:104B5000662C286BDFF878B106BF019F0A3706275D
:104B60003F18142FC8BF142730208DF8080089463D
:104B70000DF1090000E03046002F34DD06464046C6
:104B8000494602F09DFC01460A4606F1080304204E
:104B90000A26B2FBF6F606EB860EA2EB4E02303288
:104BA00003F8012C0A22B6FBF2F202EB820EA6EB0E
:104BB0004E063036401E03F8026DE9D1083F002F43
:104BC00003F10806D7DD084602F08EFC02460B46CC
:104BD0004046494602F0DEFA00225B4602F0D2F877
:104BE00080468946CBE70DF10901401A0DF109060F
:104BF00004E00199491E401E0191761C317830294C
:104C0000F7D0662C02D10199491C03E0652C0CBF3A
:104C1000012100212B6BCB189842B8BF431E002BFB
:104C20001ED4834204DAF05C3528A8BF392000DAAC
:104C300030201946721E02EB010800E05B1E18F8D6
:104C40000199491E8145F9D0392802D1705C401C78
:104C50007054002904D50198401C16465B1C019035
:104C6000019800B200901BB29DF8381032462846D9
:104C700000F034F82EE0C61D002F3FF7BDAE3046E1
:104C80000DF10901401A009903468842C8BF0B463E
:104C9000002B0DF109063FF52FAF8342BFF6FEAEA4
:104CA0000DF10900C15C07297FF7F8AE0F20F6E689
:104CB000CBCCCC0C0000244002FCFFFFFFFF0F8098
:104CC0000000E03F0000F07FA08601000000F03F00
:104CD00084D797410FB0BDE8F08F00002DE9F84769
:104CE00083B006468A461746984601F053FEB8F14F
:104CF000000F406A356B90F8009002DC4FF001081D
:104D0000BFA74AF02000BDF93040662808BF641CE8
:104D100015D0672840F0848014F1040FC0F286801B
:104D2000AC4280F2838096F83800641C010702D4FC
:104D3000A845B8BF454620B22D1A48BF00250FFA36
:104D400084FAF068B169BAF1000F25DC4A1C3023FF
:104D50004354002D03DC96F83800010703D5F068B2
:104D600000F80290521C15EB0A0FB8BF6C4220B23B
:104D7000441941424445B8BFA046B26171620FFA7E
:104D800088F5F561F068B3692A463946184401F0A0
:104D90008DFE641BB462C4E022B29045084417DA69
:104DA0004246394601F082FEB0694044B061AAEB48
:104DB0000801002D716203DC96F838100A0705D54A
:104DC000F16801F80090F069401CF061B562A8E05C
:104DD000394601F06BFEB069002D5044A8EB040881
:104DE00003DC96F838100A0703D5F16801F8009043
:104DF000401CB0610FFA88F08542F368B069B8BF13
:104E0000A8460FFA88F207EB0A01184401F04EFE9B
:104E1000B1690FFA88F00144B161281A706280E02C
:104E2000BAF1610F14D14FF0700A16E0A84504DA08
:104E300096F838100A0758BF45466D1E48BF002532
:104E4000BAF1670F14BF4FF0450A4FF0650A04E04E
:104E5000BAF1410F08BF4FF0500AB169F368481C1E
:104E6000B061002D17F8012B5A5403DC96F8381066
:104E70000A071BD5F168431CB36101F80090002DAF
:104E800014DDA8F101080FFA88F039468542F76869
:104E9000B8BFA8460FFA88F2F81801F007FEB0690B
:104EA0000FFA88F108446D1AB0617562F068B16953
:104EB0000844002C80F800A003D42B224270811CEF
:104EC00003E02D2141706442811C00206A460AE003
:104ED00023460A2493FBF4F404EB8405A3EB450377
:104EE00002F8013B401C24B2002CF1DC012806DC56
:104EF0004AF02002652A04BF302201F8012B48B98C
:104F0000302001F8010B07E0401E1DF8003030335F
:104F100001F8013B0028F7DCF268B0691044091A77
:104F2000F16196F8380000F0140010280DD1726974
:104F3000B169706A8A18F1698218B06A8A18821891
:104F4000706B8242BCBF821A326204B0BDE8F08747
:104F5000F8B505460E4617461C46002074B117F8F2
:104F6000011BB068A847B06030B1F06A401CF06225
:104F70000020641EF3D1F2BD4FF0FF30F2BD0000FF
:104F80007072696E74665F733A20256E206469736F
:104F9000616C6C6F776564007072696E74663A203C
:104FA00062616420256E20617267756D656E7400A4
:104FB0007072696E74665F733A2062616420257353
:104FC00020617267756D656E740000007072696EA5
:104FD00074665F733A2062616420256C732061728D
:104FE00067756D656E740000000000000000000031
:104FF0006E616E004E414E00696E6600494E46007D
:105000003000F0B40246106895681318506803EB3E
:105010005004C0071DD54D441BE013F8017B05F873
:10502000017B491EF9D1A0B1B60813F8011B06F0A7
:105030000306032E08BF13F8016B01EB062149425A
:10504000801C294405D011F8016B05F8016B401E46
:10505000F9D1A3420ED013F8016B16F0030104BF7F
:1050600013F8011BC91C30090F28DAD113F8010B02
:105070000F30D6E7F0BC02F10C00704700B50C48C9
:1050800081B0016841F400710160026842F48062FD
:105090000260016841F480710160032000F0D4FBDC
:1050A000002002F02FFA02F051FA002001B000BDFA
:1050B000003C02402DE9F041040082B000F03D8147
:1050C0002078DFF85C63C10713D5B06800F00C00EE
:1050D000042807D0B06800F00C00082841D170689F
:1050E00041023ED53068810303D56068002800F096
:1050F00024812178880719D5B16811F00C0F07D0E9
:10510000B06800F00C00082866D17068410263D4D2
:105110003068810703D5E068012840F00E813168CE
:10512000206921F0F80141EAC001316021780807C7
:1051300040F107816069BB49002872D00122C1F8A3
:10514000802EFEF79BFF0546706F810700F1F98006
:10515000FEF794FF401B0228F6D9032002B0BDE8F9
:10516000F0816068B0F5803F04D1306840F4803051
:10517000306011E0B0F5A02F306806D140F48020F7
:105180003060316841F4803105E020F480303060D7
:10519000316821F480213160606870B1FEF76EFFE4
:1051A000054630688103A4D4FEF768FF401B6528DC
:1051B000F7D3032002B0BDE8F081FEF75FFF05469C
:1051C0003068810395D5FEF759FF401B6528F7D35A
:1051D000032002B0BDE8F081E068924988B1012265
:1051E0000A60FEF74BFF05463068810700F1D38067
:1051F000FEF744FF401B0228F6D9032002B0BDE8A9
:10520000F0810860FEF73AFF0546316888078DD5C2
:10521000FEF734FF401B0228F7D9032002B0BDE897
:10522000F081C1F8800EFEF729FF0546706F8107F7
:1052300040F18780FEF722FF401B0228F6D90320A9
:1052400002B0BDE8F0810528306F06D140F00400BF
:105250003067306F40F0010005E0400840003067E3
:10526000306F20F004003067A06888B1FEF706FFB9
:10527000074641F28938306F810700F19C80FEF7C4
:10528000FDFEC01B4045F6D3032002B0BDE8F0810F
:10529000FEF7F4FE074641F28938306F810740F18E
:1052A0008A80FEF7EBFEC01B4045F6D3032002B018
:1052B000BDE8F081FEF7E2FEC01B022840F28F80BD
:1052C000032002B0BDE8F081FEF7D8FE001B0228E3
:1052D00040F29D80032002B0BDE8F08100202866E6
:1052E000FEF7CCFE04463068810140F19480FEF761
:1052F000C5FE001B0228F6D9032002B0BDE8F081EC
:1053000001281AD0B068E26900F48001914202BF1E
:1053100000F03F01226A91420FD147F6C071626AE4
:105320000140914202BF00F44031A26A914202BFA3
:1053300000F07060E16A88426DD0012002B0BDE8E3
:10534000F081207841073BD5306C0025C1000AD49C
:1053500000950125316C41F080513164306C00F0D2
:10536000805000900098304F3868C1051BD43868D1
:1053700040F480703860FEF781FE80463868C105D1
:1053800011D4FEF77BFEA0EB08000228F6D903201B
:1053900002B0BDE8F0813068216920F0F80040EAF1
:1053A000C1003060C2E6A06801287FF44CAF306FC6
:1053B00040F0010057E71DB1306C20F080503064A0
:1053C000A06940B3B16801F00C01082998D0022807
:1053D000144D83D100202866FEF750FE0746306842
:1053E00081013FF567AFE269206A616A0243A06A02
:1053F000400842EA8112401E42EA0042E06A42EA64
:105400000062726001212966FEF738FE04463068AA
:1054100081017FF559AF002002B0BDE8F08100BFE7
:105420000038024000004742007000402DE9F04182
:1054300004000E4600F08680684DD5F8000400F0A8
:105440000F00B04207D285F80064D5F8000400F0E0
:105450000F00B04276D12068810712D5400703D5EE
:10546000A96841F4E051A9602078010703D5A86834
:1054700040F46040A860A968A06821F0F0010143F1
:10548000A9602178C8074FD56068012802D1296832
:105490008A0305E0022818BF032805D129688A017C
:1054A00005D40120BDE8F08129688A074AD5A9689A
:1054B000890840EA8100A86041F28938FEF7DEFDE4
:1054C0000746A868616800F00C00B0EB810F2BD094
:1054D000FEF7D4FDC01B4045F3D30320BDE8F081A7
:1054E0002078410705D5AA68E06822F4E05202431B
:1054F000AA602178080706D5A968206921F46041CF
:1055000041EAC001A96000F077F8AA683449354B38
:10551000C2F30312895CC84018603348006801F088
:10552000F1FF0020BDE8F081D5F8000400F00F0085
:105530008642D5D285F80064D5F8000400F00F004B
:10554000B042CDD00120BDE8F08170B586B00C46E8
:105550001546264EF8B900900222B16A41F00101C9
:10556000B1624FF48071B06A00F0010000900098C1
:105570001F48019102920321049100220392059297
:1055800001A900F069F8316821F0EC610C432C436B
:10559000346006B070BD002000900222B16A41F074
:1055A0000401B1624FF40071B06A00F00400009091
:1055B0000098104801910292032104910022039265
:1055C000059201A900F048F8306820F078400443C3
:1055D00044EAC504346006B070BD000000380240E3
:1055E0007C820008C4030010C00300100838024089
:1055F000000002400008024030B5144C606800F022
:105600000C00042803D0082803D0114830BD1148ED
:1056100030BD226820680023410202F03F0204D519
:1056200025680C49C5F3881003E020680849C0F3D9
:105630008810A1FB000101F08DFA2168C1F301413E
:10564000491C4900B0FBF1F030BD00BF04380240F6
:105650000024F40000127A002DE9F04F03460C46B6
:105660004FF0000881B0C146C2466C486C496D4A93
:105670000125266805FA08F505EA060EAE4540F054
:10568000B780032606FA09F66FEA060C6668012E53
:1056900018BF022E03D0112E18BF122E11D19E68F2
:1056A000E7680CEA060607FA09F73E439E605E6863
:1056B00026EA05056668C6F3001606FA08F63543BD
:1056C0005D60DD68A6680CEA050506FA09F6354353
:1056D000DD606568022D18BF122D12D14FEAD80582
:1056E00003EB85050AF01C062F6A4FF00F0B0BFA2F
:1056F00006FB27EA0B07D4F810B00BFA06F63E4378
:105700002E621D680CEA0506257905F0030505FAE9
:1057100009F535431D606568ED0069D500260096E2
:105720004FEA980C156845F480451560166806F434
:10573000804600960F26009D51F82C700AF00C054B
:10574000AE4027EA0606384FBB4208BF002723D0E9
:10575000364FBB4208BF01271ED0354FBB4208BFA2
:10576000022719D0334FBB4208BF032714D0324F52
:10577000BB4208BF04270FD0304FBB4208BF0527EC
:105780000AD02F4FBB4208BF062705D02D4FBB4282
:105790000CBF0727082700BF07FA05F5354341F876
:1057A0002C506FEA0E0C056866680CEA0505F703D5
:1057B00048BF4EEA05050560456866680CEA0505C0
:1057C000B70348BF4EEA05054560856866680CEA80
:1057D0000505F70248BF4EEA05058560C56866689D
:1057E0000CEA0505B60248BF4EEA0505C0F80C50A4
:1057F00008F10108B8F10F0F0AF1040A09F10209D2
:105800007FF636AF01B0BDE8F08F000000690140BF
:10581000481E8041C043C00F70470000003C01405B
:1058200008380140443802400000024000040240B1
:1058300000080240000C0240001002400014024028
:1058400000180240001C0240284B19684FF6FF0266
:105850000002114000F4E060084325490843186045
:10586000704730B4214B1C68C4F30223C3F1070412
:10587000052C28BF04241D1D072D34BF0023DB1E6B
:10588000012505FA04F4641E2140994005FA03F34A
:105890005B1E1A4011430901020003D415488154CC
:1058A00030BC7047144B02F00F021A4402F8041C7B
:1058B00030BC7047010007D4012200F01F010F4BDC
:1058C0008A40400943F820207047401EB0F1807F95
:1058D00001D3012070470A494860F02081F8130D78
:1058E00000228A6007200860002070470CED00E06D
:1058F0000000FA0500E400E018ED00E000E100E03F
:1059000010E000E0704730B5040081B008BF01200E
:105910006CD094F83D0028B9002184F83C10204652
:1059200001F02EFE022084F83D002168DFF84821B6
:105930000B68914218BFB1F1804F0FD0DFF83C01E6
:1059400081421CBFDFF83851A94207D0DFF834018B
:1059500081421CBFDFF84851A94213D1A06823F04F
:1059600070030343914218BFB1F1804F25D0DFF897
:105970000C0181421FBFDFF80851A942DFF8040182
:1059800081421AD0DFF81851A9421CBFDFF8F80095
:10599000814212D0DFF8F450A9421CBFDFF8F000BA
:1059A00081420AD0DFF8EC50A9421FBFDFF8E800BF
:1059B0008142DFF8E850A94203D1206923F4407303
:1059C0000343A06923F0800303430B609142E36823
:1059D000CB626068886219BFDFF8C42091426069B9
:1059E000086301224A6184F83D20002001B030BDE7
:1059F000F0B5044681B0184694F83D30022B08BF3C
:105A0000022036D0069B94F83D50012D05D109B9EE
:105A10001D001BD1022584F83D50256ADFF88C60FB
:105A2000DFF88070EE63DFF88050266A3564266AFE
:105A30007764276ABD64266ADFF87450F5640093C2
:105A400013460246206A01F0D9FD10B1012001B0D1
:105A5000F0BD2068C16841F48071C1602068816830
:105A600001F00701062903D0016841F0010101603E
:105A7000002001B0F0BD0000000001400004004023
:105A800000080040000C004000400140004401407C
:105A90000048014000180040001C00400020004069
:105AA000000401401D5C0008295C0008055900083D
:105AB000115C000870B490F83C20012A08BF022055
:105AC00000F0A280012280F83C20022380F83D30C3
:105AD000DFF8602103689C6814409C600A6813002A
